:020000040800F2
:100000000080012081080008D1080008D1080008FC
:10001000D1080008D1080008D1080008000000003D
:10002000000000000000000000000000D1080008EF
:100030000000000000000000D1080008D1080008FE
:1000400000000000D1080008D1080008D10800080D
:10005000D1080008D1080008D1080008D10800081C
:10006000D1080008D1080008D1080008D10800080C
:10007000D1080008D1080008D1080008D1080008FC
:10008000D1080008D1080008D108000800000000CD
:10009000000000000000000000000000D10800087F
:1000A000D1080008D1080008D1080008D1080008CC
:1000B000D1080008D1080008D1080008D1080008BC
:1000C000D1080008D1080008D1080008D1080008AC
:1000D000D1080008D1080008D1080008000000007D
:1000E000D1080008D1080008D1080008000000006D
:1000F000000000000000000000000000D10800081F
:1001000000000000D1080008D1080008D10800084C
:1001100000000000000000000000000000000000DF
:10012000D1080008D1080008D1080008D10800084B
:10013000D1080008000000000000000000000000DE
:10014000000000000000000000000000D1080008CE
:10015000D1080008D1080008D1080008D10800081B
:10016000D1080008D10800080000000000000000CD
:10017000000000000000000000000000000000007F
:10018000000000000000000000000000000000006F
:04019000D10800088A
:1001940010B5054C237833B9044B13B10448AFF3BD
:1001A40000800123237010BD040000200000000023
:1001B400D408000808B5034B1BB103490348AFF347
:1001C400008008BD0000000008000020D4080008DA
:1001D40070B50D4D0D4C641BA4100026A64209D128
:1001E4000B4D0C4C00F074FB641BA4100026A642BB
:1001F40005D170BD55F8043B98470136EEE755F834
:10020400043B98470136F2E77809000878090008AA
:10021400780900088009000870477047024B13B141
:10022400024800F005B870470000000041020008D1
:10023400002301461A46184600F014B838B5074D95
:10024400074C641BA4101CB9BDE8384000F046BB41
:10025400013C55F824309847F5E700BF80090008B1
:10026400840900082DE9F047DFF874A00646DAF89F
:10027400000098460F469146FFF7CEFF164B1C68C8
:100284000CB9164C1C606568DAF800001F2D05DDFA
:10029400FFF7C3FF4FF0FF30BDE8F0879EB104EBDA
:1002A40085010122C1F88890D4F88831AA4013430B
:1002B400C4F88831022EC1F8088102BFD4F88C3109
:1002C4001343C4F88C316B1C0235636044F8257009
:1002D400FFF7A3FF0020DFE7240000202800002010
:1002E4000000002030B5A5B02A4D284600F060F883
:1002F400294C204600F056F9204600F07DF9274AA3
:1003040021AB07CA83E807001946204600F05BFAD0
:1003140005220121284600F099F8052201212846EA
:1003240000F0ADF81E49204600F08BFA1D49204626
:1003340000F087FA002412E004F190036B440024D7
:1003440003F88C4C144D1849284600F07AFA01A998
:10035400284600F076FA1549284600F072FA0DF1A5
:1003640003010D4800F081FA0028F8D19DF803102C
:100374000D29E1D00A29DFD0074800F05BFA7E2C72
:10038400EDD804F190036B449DF8032003F88C2C02
:100394000134E4E70000024000440040EC08000897
:1003A400F80800081409000838090008480900087A
:1003B4001F4B984215D01F4B984219D01E4B9842A0
:1003C4001DD01E4B984221D01D4B984225D01D4B69
:1003D400984229D11C4A136B43F080031363002015
:1003E4007047194A136B43F00103136300207047ED
:1003F400154A136B43F00203136300207047124A3B
:10040400136B43F004031363002070470E4A136B0D
:1004140043F008031363002070470B4A136B43F047
:1004240010031363002070476FF00100704700BF92
:10043400000002400004024000080240000C024098
:1004440000100240001C024000380240032910D86A
:100454000F2A11D8520003684FF0030C0CFA02FC67
:1004640023EA0C030360036891400B4303600020FC
:1004740070476FF0010070476FF0010070470F2A5A
:100484000DD8012906D069B9103201239340836144
:1004940000207047012393408361002070476FF070
:1004A400010070476FF0010070470F2A23D8072915
:1004B4000FD88900036A4FF00F0C0CFA01FC23EAF1
:1004C4000C030362036A02FA01F10B430362002086
:1004D40070470F2912D808398900436A4FF00F0C6E
:1004E4000CFA01FC23EA0C034362436A8A40134377
:1004F4004362002070476FF0010070476FF0010005
:1005040070470000054B9B6813F00C0F03D1044B9C
:100514000360002070476FF001007047003802400C
:100524000024F40030B583B004460D4601A8FFF75B
:10053400E9FF10F1020F21D0154A9368C3F30313A6
:10054400144931F81310019BB3FBF1F39168C1F323
:100554008221114810F801C09268C2F34232815CD2
:100564000E4A94420CD00E4A944203D0A2F5806203
:1005740094420AD1B3FBF1F32B60002003B030BDE9
:10058400B3FBFCF32B600020F8E76FF00100F5E704
:10059400003802405809000850090008004400408F
:1005A40000140140104B98420CD0104B984210D0CC
:1005B4000F4B984214D10F4A536C43F020035364F9
:1005C400002070470B4A136C43F40033136400207B
:1005D4007047084A536C43F010035364002070477B
:1005E4006FF00100704700BF00440040001001405C
:1005F400001401400038024038B504462B48FFF788
:10060400D7FE00284CD10546294B9C421CD0294BCF
:100614009C422FD0284B9C4245D1244C0B220221D2
:100624002046FFF713FF0C2202212046FFF70EFF9E
:1006340008220B212046FFF738FF08220C21204610
:10064400FFF733FF284638BD184C022211462046D6
:10065400FFF7FCFE032202212046FFF7F7FE0722E4
:1006640002212046FFF721FF072203212046FFF73E
:100674001CFFE7E70D4C092202212046FFF7E6FEA6
:100684000A2202212046FFF7E1FE07220921204623
:10069400FFF70BFF07220A212046FFF706FFD1E7E9
:1006A4004FF0FF35CEE76FF00105CBE700000240C5
:1006B40000440040001001400014014030B583B0F4
:1006C40005460C4601A9FFF72DFF38B9019B03EB42
:1006D4005403B3FBF4F3AB6003B030BD4FF0FF3011
:1006E400FAE729B9C36823F48053C3600020704734
:1006F400012905D1C36843F48053C36000207047C7
:100704006FF0010070470A4609B1022909D1036953
:1007140023F440530361036943EA02330361002075
:1007240070476FF001007047022902D069B10329B4
:1007340016D1C36843F48063C36002290AD0C36836
:1007440043F40073C36000207047C36823F48063DC
:10075400C360F2E7C36823F40073C36000207047EA
:100764006FF001007047C36823F00C03C3600129D4
:1007740006D059B9C36843F00803C360002070472A
:10078400C36843F00403C36000207047022905D105
:10079400C36843F00C03C360002070476FF001008E
:1007A400704729B9C36823F40043C360002070472D
:1007B400012905D1C36843F40043C3600020704796
:1007C4006FF00100704738B504460D460968FFF71D
:1007D40075FFE8B929792046FFF783FFD8B969790D
:1007E4002046FFF790FFC8B9A9792046FFF79CFF80
:1007F400B8B9E9792046FFF7B6FFA8B9297A2046A7
:10080400FFF7CFFF98B9E36843F40053E36038BDC2
:100814006FF00100FBE76FF00100F8E76FF00100F3
:10082400F5E76FF00100F2E76FF00100EFE76FF01A
:100834000100ECE7036813F0800FFBD04160002057
:10084400704738B505460C4661B1217841B1013491
:100854002846FFF7EFFF0028F7D04FF0FF3000E005
:10086400002038BD6FF00100FBE7036813F0200F90
:10087400FBD043680B700020704700000D4885468C
:10088400AFF300800C480D490D4A002302E0D45810
:10089400C4500433C4188C42F9D30A4A0A4C0023C6
:1008A40001E013600432A242FBD3FFF791FCFFF78F
:1008B40019FDFEE700800120000000200400002054
:1008C4008409000804000020B8010020FEE70000AD
:1008D400F8B500BFF8BC08BC9E467047F8B500BF29
:0808E400F8BC08BC9E467047F9
:1008EC0000C2010000000002000000000D0A555378
:1008FC00415254206563686F20746573742072656F
:10090C00616479210D0A00005479706520736F6D54
:10091C00657468696E6720616E64207072657373AC
:10092C0020456E7465723A0D0A0000000D0A596F6D
:10093C00752074797065643A200000000D0A3E2021
:10094C000000000001010101020408100100010077
:10095C00010001000100010001000100020004007F
:0C096C00080010004000800000010002A4
:0809780021020008B90100088A
:0409800095010008D5
:04098400200000202F
:040000050800088166
:00000001FF
